:0200000270008C
:1080000000000120B5820700DD820700DF82070043
:10801000E1820700E3820700E5820700000000001C
:1080200000000000000000000000000001C1070087
:10803000E982070000000000EB820700ED820700E4
:10804000EF820700EF820700EF820700EF82070050
:10805000EF820700EF820700EF820700EF82070040
:10806000EF820700EF820700EF820700EF82070030
:10807000EF820700EF820700EF820700EF82070020
:10808000659D0700EF820700EF820700EF8207007F
:10809000EF820700EF82070009C30700EF820700A5
:1080A000EF820700EF820700EF820700EF820700F0
:1080B000EF820700EF8207000000000000000000D0
:1080C000EF820700EF820700EF820700EF820700D0
:1080D000E5990700EF820700EF820700000000002B
:1080E0000000000000000000000000000000000090
:1080F0000000000000000000000000000000000080
:10810000000000000000000000000000000000006F
:10811000000000000000000000000000000000005F
:10812000000000000000000000000000000000004F
:10813000000000000000000000000000000000003F
:10814000000000000000000000000000000000002F
:10815000000000000000000000000000000000001F
:10816000000000000000000000000000000000000F
:1081700000000000000000000000000000000000FF
:1081800000000000000000000000000000000000EF
:1081900000000000000000000000000000000000DF
:1081A00000000000000000000000000000000000CF
:1081B00000000000000000000000000000000000BF
:1081C00000000000000000000000000000000000AF
:1081D000000000000000000000000000000000009F
:1081E000000000000000000000000000000000008F
:1081F000000000000000000000000000000000007F
:1082000010B5054C237833B9044B13B10448AFF3D0
:1082100000800123237010BD1C5A002000000000C4
:10822000F4D9070008B5034B1BB103490348AFF36A
:10823000008008BD00000000205A0020F4D907008B
:10824000154B002B08BF134B9D46A3F5803A002128
:108250008B460F461348144A121A05F043F90F4B88
:10826000002B00D098470E4B002B00D098470020E1
:10827000002104000D000D48002802D00C48AFF387
:10828000008005F0EFF82000290001F097F905F0D3
:10829000D5F800BF00000800000001200000000029
:1082A000000000001C5A0020E87F002000000000B1
:1082B000000000000649074A074B9B1A03DD043BF8
:1082C000C858D050FBDC00F039F8FFF7B9FF0000C8
:1082D00058DA0700685900201C5A0020FEE7FEE724
:1082E000FEE7FEE7FEE7FEE7FEE7FEE7FEE7FEE766
:1082F000044B1868421C04BF034B1878831F584274
:108300005841704730010010E00F00F0064B18682C
:10831000083B1B78062B05D1C0F30310C31E58423F
:108320005841704700207047E80F00F0024AD2F829
:108330000034002BFBD0704700E0014010B5FFF780
:10834000D7FF28B1824B834A1B68C3F30423136011
:10835000FFF7DCFF10B1804B804A1A60FFF7C8FFBF
:1083600028B17F4B7F4A1B68C3F342331360FFF78A
:10837000CDFF20B17C4AD36823F08073D360FFF730
:10838000B7FF40B14FF080430022C3F80C21C3F87F
:108390001021C3F83825FFF7B9FF10B1734B032242
:1083A0001A60FFF7B3FF40B1714B05221A6001223A
:1083B0009A6700229A603F225A606E4B1A68511CDD
:1083C0000BBF6D4B6D4B1A781B6802BF08331B68DF
:1083D000C3F30313062A49D1033B012B46D94FF0BF
:1083E0008052674BD2F80414C3F82015D2F8081451
:1083F000C3F82415D2F80C14C3F82815D2F81014B9
:10840000C3F82C15D2F81414C3F83015D2F8181488
:10841000C3F83415D2F81C14C3F84015D2F8201450
:10842000C3F84415D2F82414C3F84815D2F8281418
:10843000C3F84C15D2F82C14C3F85015D2F83014E8
:10844000C3F85415D2F83414C3F86015D2F83814B0
:10845000C3F86415D2F83C14C3F86815D2F8401478
:10846000C3F86C15D2F84424C3F87025FFF740FF19
:1084700028B1444B444A1B6803F04F031360FFF7D5
:1084800037FF48B14FF08043D3F80024D20744BFF0
:108490006FF00102C3F80024364B1B68062B09D18C
:1084A000364B1B68033B022B81BF384A136843F4E9
:1084B00080631360364AD2F8883043F47003C2F800
:1084C0008830BFF34F8FBFF36F8F2A4B1B68062B8B
:1084D0000CD12A4B1B68033B032B81BF4FF01023A9
:1084E000D3F808224FF08043C3F858254FF01023EB
:1084F000D3F80022002A03DBD3F80432002B22DA5F
:1085000024490123C1F80435FFF710FF4FF0102074
:108510001524C0F80042FFF709FFC0F80442FFF736
:1085200005FF0023C1F80435FFF700FFBFF34F8FAD
:108530001749194BCA6802F4E0621343CB60BFF3DA
:108540004F8F00BFFDE7154B154A1A6010BD00BFE5
:10855000240300104035014074C007400DF0ADBA4F
:10856000440200103C050040F0ED00E0A005004092
:108570001056004030010010E00F00F034010010F0
:1085800000C0004058020010E40E00403C170040BC
:1085900000ED00E000E001400400FA056859002009
:1085A0000090D00330B54C1CE40012F00303A4B2D9
:1085B0000ED1084D2A602244074C2260074A1370EE
:1085C000074A1370074A1080074A1846118030BDC9
:1085D0000720FCE7405A00203C5A0020385A00206F
:1085E000485A0020445A0020465A00202DE9F347FB
:1085F0002B4D2B888B4206460C4617464CD34FF02A
:1086000000080DF107008DF8078000F087F8254B72
:10861000254A18781178CBB2244909888B4238BF93
:108620000133C0B238BF5FFA83F840452ED092F8CC
:1086300000801378DBB2994286BF0133DBB200239E
:1086400013709DF8070000F08DF84FF6FF73984502
:1086500024D0DFF860A0DAF800304FEAC80903EB55
:10866000090243F83870A6B19CB1114B28881B68E9
:10867000224608FB0030314604F026FFDAF80030CD
:108680004B4400209C8002B0BDE8F0874FF6FF7895
:10869000D7E700209080F6E70920F4E70420F2E70E
:1086A000445A0020485A0020385A0020465A0020D8
:1086B0003C5A0020405A0020F8B5124C124D264674
:1086C00022782B789A4200D1F8BD23780F48104ABF
:1086D000078812680F48DBB219B202EBC10C0068C0
:1086E00052F83120BCF8041003FB070090470A4AF7
:1086F00023781288DBB29A4286BF0133DBB20023B3
:108700003370DDE7485A0020385A0020445A0020D0
:10871000405A00203C5A0020465A002070B5EFF322
:10872000108672B60C4A946801239CB993600B4B77
:108730000B4DD3F8801029401160C3F88050D3F856
:10874000841051604FF0FF32C3F88420047006B9E2
:1087500062B670BD0370FAE75C7C002000E100E0C7
:10876000FC06FFBD10B5084B9A685AB150B9EFF33B
:10877000108172B6054A1C6814605C685460986089
:1087800001B962B610BD00BF5C7C002000E100E0D2
:1087900030B53AB11368DB430A4D0144884204D135
:1087A000D84330BD4FF0FF33F6E710F8012B5340AC
:1087B000082213F0010418BF2C46013A84EA53033F
:1087C000F7D1EBE72083B8ED10B561B1B2FBF3F45C
:1087D00003FB1424A4B244B9C0E90014846082816C
:1087E000C381204610BD0E20FCE70920FAE782B0C5
:1087F00050E8022FC188B2EB324F4FF0000317BF91
:1088000092B241EA014142EA014104E04268B2EB1E
:10881000324F08BF012340E80212002AE8D18DF848
:1088200007309DF80730002B0CBF1120002002B04C
:10883000704737B550E8013F9DB2C489254484890B
:10884000A54228BF2D1B0489A54202BFBFF32F8F6D
:10885000002207E0C5EA030540E80154002CE9D1F5
:108860004FF001028DF803200193019B9DF8032036
:108870000B6002F0FF0322B10B880068184403B0BC
:1088800030BD1846FBE70A884B889A4209D150E868
:10889000012FC2EA024240E80123002BF7D1012058
:1088A00070470020704737B550E8023F1FFAA3F524
:1088B000C488A54202BFBFF32F8F00220DE0C489F8
:1088C00025448489A54228BF2D1BC3EA054540E8FD
:1088D0000254002CE8D14FF001028DF803200193DF
:1088E000019B9DF803200B6002F0FF0322B14B882F
:1088F0000068184403B030BD1846FBE70A884B886F
:108900009A4209D150E8022FC2EA224240E80223EB
:10891000002BF7D1012070470020704750E8002F4E
:1089200042EA010340E8003C9CF0000FF6D11046FB
:10893000704750E8003F03EA010240E8002C9CF039
:10894000000FF6D1104670470121FFF7E7BF002165
:10895000FFF7EFBF10B590B1D0E9012301689B1A72
:10896000DBB20A60013BDBB2FF2B026802D10020C0
:10897000107110BD11684C1C14600B70F2E70E20D2
:10898000F7E737B5054600240DF107008DF80740DD
:10899000FFF7C4FE2A68696813688B4210D9591E14
:1089A000116013F8014C2A8AEB6802FB04342A6830
:1089B000AB6811685B1A1179DBB2994238BF137149
:1089C0009DF80700FFF7CEFE204603B030BD37B557
:1089D000054600230DF107000C468DF80730FFF720
:1089E0009DFE2A681368591C1160E968641A298A77
:1089F000B4FBF1F41C709DF80700FFF7B3FE03B061
:108A000030BD01600B681146184710B40468E46873
:108A1000A4465DF8044B604710B404682469A4467A
:108A20005DF8044B6047000070B508B10368ABB94E
:108A30000C4D0D4C0026641B1423B4FBF3F4B4421C
:108A400001D1002009E02B6813B901361435F6E78F
:108A5000DB69284698470028F7D070BDDB69BDE880
:108A600070401847085A00201C5A0020014B4360F0
:108A70000020704720D50700084670470020704747
:108A8000024B1868003018BF012070474C5A002074
:108A900008B50248FFF75BFF002008BD4C5A0020D4
:108AA00008B510461A4604F00FFD002008BD00006E
:108AB0002DE9F041804686B013480E4615461F4604
:108AC000FFF742FF044630B111200EE006EB043000
:108AD00000F0DAFB0134A542F8D10B48FFF737FF6D
:108AE000D8F8083000241BB9184606B0BDE8F0815C
:108AF000022268468DF80020CDE90146CDE9034504
:108B0000059798472046F0E74C5A00202DE9F041A0
:108B1000804686B012480F4616461D46FFF714FFE2
:108B20000446D8B9AA083146384600F0DBFB0C48A9
:108B3000FFF70DFFD8F808301BB9184606B0BDE89E
:108B4000F08101228DF800200C9A05926846CDE94B
:108B50000147CDE9036598472046EFE71120EDE78F
:108B60004C5A002029DF704728DF704770B5056830
:108B7000AB6886B004460E4673B1142200216846E5
:108B800004F0B0FCA36805932379019633B1012B5F
:108B90000ED0AB686846984706B070BD01238DF8CB
:108BA000003023690293E368039363690493F0E759
:108BB00002238DF80030E3681B030293F5E70846B3
:108BC0007047002070470000024B187A003018BF31
:108BD000012070473C5C0020034B187A0122B0FA58
:108BE00080F05A74400970473C5C002008B510467C
:108BF0001A4604F069FC002008BD000008B51422E4
:108C00000021044804F06EFC0348FFF7F0FD00204B
:108C100008BD00BF3C5C00202C5C002010B5094C56
:108C2000094B43602046FFF78FFE48B903F052FB23
:108C30001C2320744FF4EE7204490548FFF7C4FD6D
:108C4000002010BD3C5C00204CD50700505A00208D
:108C50002C5C002070B5234D234E2B7A2C463BB95B
:108C600022492348FFF71FFE306008B9686070BDD5
:108C70000223237233681A7972B1012A22D018466E
:108C80000321FFF773FF002323726360174918481D
:108C9000BDE87040FFF732BED3E90520121A142A4E
:108CA00028BF1422D3E903159208012A014438BFD2
:108CB00001222844FFF756FF50B11128DFD10123CC
:108CC0002372D4E7D3E903021044FFF74DFFF3E723
:108CD000237C002BCBD10146BDE87040022000F080
:108CE00009B800BF3C5C0020545C0020505C0020B0
:108CF0002C5C002038B5831E012B43D8224C237AEC
:108D0000002B3FD0022B09D103282ED01F4B00226D
:108D10001B68E2601A793AB1012A20D0637C6BBBF0
:108D2000BDE83840FFF796BFD3E905128D1A142D20
:108D300094BF521914329A619142EFD102284FF038
:108D4000000308BF19462372104B18BF0D21186885
:108D5000FFF70CFF0E490F48FFF7D0FDDEE71A6959
:108D600001321A615B699A42E7E7E3680133082B35
:108D700001D8E360D2E70023E360DFE7BDE83840D5
:108D800003F098BA38BD00BF3C5C0020545C002062
:108D9000505C00202C5C002000F0FD03012B08D16A
:108DA000044B00225A74421E504250411874FFF77F
:108DB00051BF70473C5C002010B5064C201DFFF7EA
:108DC000C3FD28B9637C1BB9BDE81040FFF742BF63
:108DD00010BD00BF3C5C00202DE9F34180460D46EC
:108DE0000F4801A916461F46FFF723FD0446A8B108
:108DF0001C22002104F076FB2D0B0123237101A915
:108E0000C4F80080A760E56066610548FFF73BFD98
:108E1000FFF7D2FF002002B0BDE8F0810420FAE79E
:108E20002C5C00202DE9F74381468846104801A9B3
:108E300017461E46FFF7FDFC0446B0B11C22002178
:108E400004F050FB00250A9BA36001A92571C4F81A
:108E50000090C4E9037866610548FFF714FDFFF749
:108E6000ABFF284603B0BDE8F0830420FAE700BF5B
:108E70002C5C002001600B6843604A68934204BF89
:108E8000002343607047436843B1026891680B4414
:108E900043605268934204BF002343607047000060
:108EA0002DE9F04FC9B008AA01F1400514464B78EE
:108EB0000E781B0443EA0663CE7833438E78043180
:108EC00043EA06238D4244F8043BF0D11024916B11
:108ED00016464FEAF14383EA714383EA9123716AAC
:108EE000366852F8045F31440B444FEAB54181EAD9
:108EF000F51181EAD50101340B44402CD363E6D14E
:108F0000D0E914E30093836D0193C36D0293036E64
:108F10000393436E0493836E0593C36E0693DDE95A
:108F2000057BDDE9031CDDE901592B4B009E07930E
:108F300074464FF00008079B53F8042B07934FEA41
:108F4000F12383EAB11383EA716A08AB53F828303E
:108F50001A440AEB020327EA010A01EA0C028AEA30
:108F600002021A444FEA743A86EA05035A448AEA2E
:108F7000B40A06EA050B234083EA0B038AEAB45AD3
:108F800008F101089A44B8F1400F02EB0903BB460F
:108F90005244A94619D172440265009A224442659E
:108FA000019A32448265029A2A44C265039A1A449D
:108FB000049B02660B444366059B63448366069BE1
:108FC0003B44C36649B0BDE8F08F674635468C46E2
:108FD000264619461446AEE778D5070030B5E0B10D
:108FE0000F4A104900240025C0E91245C0E91412B7
:108FF0000D4C0E4A0E4DC0E916420E4AC0E91852F9
:109000000D4A826602F17452A2F523020023A2F6F1
:1090100092420364C266184630BD0E20FCE700BFD2
:1090200085AE67BB67E6096A72F36E3C3AF54FA5F9
:109030007F520E518C68059BABD9831FF8B504464F
:10904000F0B10AB90020F8BDD1B10D468E18002745
:10905000B542F7D0236C15F8012BE2540133402BB5
:109060002364F5D121462046FFF71AFFD4E91231D7
:1090700013F5007341F10001C4E912312764E7E7F9
:109080000E20E0E770B50D4616460446002877D05E
:10909000002975D0026C8021372A02F10103815426
:1090A0004FF0000242D8382B3BD1D4E91223206C78
:1090B0000821E1FB0023104612BAE2631A0A19469E
:1090C00084F83B3084F83A201A0C1B0EC4E91201D4
:1090D00084F83920214684F838302046FFF7E0FE36
:1090E000691E76B30023E26EDA4001F8012FA26E0A
:1090F000DA400A71626EDA400A72226EDA400A734E
:10910000E26DDA400A74A26DDA400A75626DDA40E7
:109110000A76226DDA400833202B0A77E3D100204B
:1091200070BDE2540133BEE7E25401333F2BFBD95B
:1091300021462046FFF7B4FE3822002104F0D2F980
:10914000B3E71823226DDA4001F8012F626DDA408F
:109150000A71A26DDA400A72E26DDA400A73226E79
:10916000DA400A74626EDA400A75A26EDA400A7654
:10917000E26EDA40083B13F1080F0A77E2D1CEE73E
:109180000E20CDE743689B68184708B54368083050
:109190005A7900F0C4F9002008BD2DE9F0430D46CE
:1091A0009BB0084699469046FFF7ECFF6E687479CD
:1091B0004C4528BF4C4607462246414602A800F0CF
:1091C000A3F9727922990AA800F0A9F900970AABCD
:1091D000224602A905F1080003F0C8FF002848F262
:1091E000425018BF00201BB0BDE8F083044B1A5C4E
:1091F000012393404FF0A042C2F80C35704700BFE6
:1092000084D60700044B1A5C012393404FF0A04220
:10921000C2F80835704700BF84D6070008B50020A3
:10922000FFF7F0FF0120FFF7EDFF0220FFF7EAFF55
:109230000320BDE80840FFF7E5BFC20708B50146B7
:109240000CD54FF0A0430322C3F84427C3F84827A6
:10925000C3F84C27C3F85027FFF7E0FF8B070AD568
:109260004FF0A0430C22C3F83427C3F83827C3F8C3
:109270003C27C3F8402708BD024AD2F80034002B2F
:10928000FBD0704700E001400A4908B50223C1F84D
:109290000435BFF36F8FBFF34F8FC1F80805FFF799
:1092A000EBFF0023C1F80435BFF36F8FBFF34F8F7F
:1092B00008BD00BF00E0014010B5094C0123C4F80F
:1092C0000435BFF36F8FBFF34F8F0160FFF7D4FFFB
:1092D0000023C4F80435BFF36F8FBFF34F8F10BD69
:1092E00000E001400E4B10B50124C3F80445BFF364
:1092F0006F8FBFF34F8F01EB8204401AA14208D158
:10930000074B0022C3F80425BFF36F8FBFF34F8FC5
:1093100010BD431851F8042B1A60FFF7ADFFEDE7BD
:1093200000E0014028B139B10023C1E900301846FE
:10933000704748F21050704748F21350704730B1F0
:10934000036848F240508B4208BF0020704748F243
:109350001050704728B148F21150914208BF0020C8
:10936000704748F21050704770B506460C461D46CF
:10937000FFF7D8FF50B9B3794AB1AB420AD11146D1
:109380002046FFF702FF08B9044B236070BD48F286
:109390001050FBE748F21150F8E700BF7052464DFD
:1093A0002DE9F0470C4607460F49204615469846DA
:1093B000DDE90869FFF7C3FF98B963685A79494640
:1093C00052003046FFF7C6FF58B945B108964346EC
:1093D0002A4621463846BDE8F047FFF7DEBE48F290
:1093E0001050BDE8F08700BF7052464D10B50446DE
:1093F00038B149B141600B68984708B9044B236004
:1094000010BD48F20150FBE748F21050F8E700BFEA
:109410006E524648F0B448B107680A4EB74209D1C7
:1094200059B16AB14368F0BC5B68184748F2015013
:10943000F0BC704748F20250FAE748F21050F7E7E4
:109440001046F5E76E524648F0B460B107680C4E1E
:10945000B7420CD171B143681568DC68A5420CD3E2
:109460009B68F0BC184748F20150F0BC704748F2C6
:109470000250FAE748F21350F7E748F21450F4E7C5
:109480006E5246482DE9F041044617469846DDE9FC
:109490000656FFF7ABFF60B9424639462046FFF754
:1094A000B9FF30B9324629462046BDE8F041FFF702
:1094B000CBBFBDE8F0810000F8B50A4F0A4C0B4D58
:1094C000E41B0121E40829700026A64203D10223EF
:1094D0002B700020F8BD57F8363098470028F9D196
:1094E0000136F2E7F8D90700F8D90700585C0020E8
:1094F00001390144814200D2704703780A7800F8AC
:10950000012B01F80139F5E7013A024401398242A1
:1095100000D2704711F8013F02F80139F7E770B542
:1095200016460D46FFF7F0FF3246A9193044BDE854
:109530007040FFF7E9BF38B50D460446FFF7D8FF86
:1095400029466019BDE83840FFF7D2BFBFF34F8FFF
:109550000549064BCA6802F4E0621343CB60BFF3CF
:109560004F8F00BFFDE700BF00ED00E00400FA05EB
:1095700008B507281BD8DFE800F004121A1A1A04ED
:109580001A040120FFF759FE0020FFF72FFE0120EB
:10959000FFF72CFE0220BDE80840FFF733BE012094
:1095A000FFF730FE0220BDE80840FFF71FBE08BDF0
:1095B00008B5FFF7CBFF08B5FFF7C8FF08B500F007
:1095C0009DFB4FF48051002000F039F908B1FFF7FE
:1095D000BDFF0548C0F5FC2100F031F90028F6D1A7
:1095E000024800F059F8F2E7008007007195070083
:1095F000007800F00100704741DF7047014B012205
:109600001A7070477C600020BFF34F8F0549064BEE
:10961000CA6802F4E0621343CB60BFF34F8F00BF10
:10962000FDE700BF00ED00E00400FA05024B03482F
:1096300000221A7001F08ABF7C60002009960700A2
:10964000831E10B50446052B09D8DFE803F0160386
:1096500003080F0F0B494FF4701000F021FA0A4B6A
:109660001B686BB12046BDE810401847074B0848FF
:1096700000221A7001F06AFFF1E701F0ADFEEEE79B
:1096800010BD00BF2D960700806000207C60002088
:10969000099607000020704738B5514B514A1860B1
:1096A0004FF0A0430020C3F8402701F065FF0446B7
:1096B00048B900F0CDFA012800F0898041B221B10B
:1096C000022800F08A80032038BD4FF08043D3F891
:1096D000004414F4803432D04FF48032C3F80024B4
:1096E0000C46414D2B6A012B37D04FF4701400F01B
:1096F00045FB3E4A20211820FEF754FF08B1FFF732
:109700005AFF3B4B1A6802F0F902B12A02BF1A68ED
:1097100002F04E021A60FFF7BDFF0028D3D12046A9
:10972000344900F0BDF9344801F038F80028CAD1B6
:1097300000F04AFBFEF7C0FFFFF75EFFF8E7D3F843
:10974000202502F0F902A92A03BFD3F8202502F050
:109750005602C3F820250124C3E743F204031A6824
:10976000264B9A4209D001F0B7FFAA69014694B18D
:10977000234802F089FA90B9B7E76A6B1CB995F8EB
:109780006032012BEFD04FF480511E4802F07CFA7A
:109790000028E8D1A9E795F8A132012BE8D14FF0D4
:1097A000A043D3F81035DB039FD5114B1B6803F0A2
:1097B000F903B12B99D001F03BFF002883D1124B64
:1097C0001870124801F0C2FE00F024F87BE70E4B3F
:1097D0000F481C7001F0BAFE75E74FF4A02486E72D
:1097E000806000200C000300687C00205C5C00208E
:1097F0001C0500402D96070041960700DBE5B1519E
:10980000097F0020C87E00207C600020FD950700B5
:109810000996070008B5074B4FF0FF32C3F88020C8
:10982000C3F8802101F0FAFB4FF48050BDE80840F6
:1098300000F032B800E100E080F308880847C1F387
:109840000B0330B52BBBB0F5FE2F22D8000B01392E
:1098500000EB113101254FF08042814201D20020FE
:1098600030BD00F01F03440905FA03F3032C05D8AB
:10987000DFE804F00206090CC2F800360130ECE71C
:10988000C2F80436FAE7C2F81036F7E7C2F8143621
:10989000F4E70720E4E7000010B504461448C0F5DB
:1098A000FE21FFF7CCFF08B1FFF785FE01F014FFA2
:1098B000104B996901F6FF7121F47F6121F00F01CE
:1098C00001440020FFF7BBFF08B1FFF774FEEFF380
:1098D00005830023D4E9000183F3148883F31088FF
:1098E00083F3118883F31388BDE81040FFF7A4BF0A
:1098F00000800700687C002037B56FF07F42154C70
:10990000057BD4F804358A4228BF0A46891A1344D5
:109910004A1E942A23F07F4305F5A8729BBF963B0D
:1099200096314160416044F822300B4B4FF4F860AF
:1099300043F001039847094BAA00134400221A6020
:109940001B680193019B4FF48033AB40C4F8043390
:1099500003B030BD00400240D0D607004041024075
:1099600018490A7884B0002A29D14FF08043A020FA
:10997000D3F81834DB035EBF134B01221A60134A7D
:109980000023136012680392039A114A136012684D
:109990000292029A0F4A136012680192019A0E4ACB
:1099A00082F82403102050600C4A0D48C2F8083594
:1099B0000123036002201360C2F804030B7004B09B
:1099C000704700BF8860002008000040004102404E
:1099D000404102404441024000E100E000400240BA
:1099E0000840024013B5284B1A6842B127490A685B
:1099F00001320A6000221A601B680093009B244B0E
:109A00001A68A2B100221A6022481B68027B0193E7
:109A1000019B4FF4803393401F4AC2F808334168DA
:109A2000044601BB8168D9B9236803B198471B4B31
:109A30001A6832B300221A6016481B68027F01932D
:109A4000019B4FF480339340134AC2F808334169B5
:109A5000044659B1103002B0BDE81040FFF74CBFCA
:109A6000FFF74AFFE0E7FFF747FFE0E7816911B141
:109A70001030FFF741FF23691BB102B0BDE8104071
:109A8000184702B010BD00BF0441024084600020AE
:109A9000404102406C5900200040024044410240D5
:109AA00070B50B4B1C68227B4FF480339340094AFE
:109AB0000E46C2F80833054640B1FFF751FF266055
:109AC00029462046BDE87040FFF716BF70BD00BFB5
:109AD0008C5900200040024070B5074B1C680E46B0
:109AE000A0600546FFF73CFF266029462046BDE8FA
:109AF0007040FFF701BF00BF90590020014B0122C9
:109B00001A7070478960002070B5154DEA6A6E6A58
:109B1000AC6CAC2A13D16B6B1C44F61AEB6AAC2B01
:109B200013D0324621460F4803F0C0FCA8B100F024
:109B30004BF931462046BDE8704001F051BA002C87
:109B4000ECD101F0DFFD0446E8E73246A4F58041A0
:109B5000044803F0ABFC0028E3D1002070BD00BF37
:109B6000687C0020008007002DE9F74F8046894679
:109B7000A9EB0804240B02F6FF76154600F0FEF868
:109B8000082C28BF08242303DFF860B00193360BAC
:109B90000DB92B4626E0B4422CBFB246A2464FF088
:109BA0000002514640462CBF2F46019F01F000FAAB
:109BB0000346B8B9FA1C22F003024946404601F0B8
:109BC000E9F9034670B9DBF83030ED1BB844B9440D
:109BD0001F44CBF8307001F0BFFCA6EB0A06034629
:109BE0000028D5D0184603B0BDE8F08F687C00206F
:109BF00010B501F097FD154A42F20403916CCC5860
:109C000003F1A34303F5471303F2D7539C4218D142
:109C1000D2E90C32934216D0884204D10020BDE82C
:109C2000104001F099BCD21A02F6FF7222F47F6252
:109C300022F00F0219441844FFF796FF0028EDD0D8
:109C400010BD0320FCE70020FAE700BF687C00207D
:109C500070B5264CE36AA52B33D003D8012B0BD06B
:109C6000002070BDAA2B30D0AC2BF9D1FFF7C0FF7C
:109C700048BBFFF749FF26E0A66C656A01F02CFDA2
:109C8000864229D101F028FD00222946FEF780FDF9
:109C9000A36A984202BF0123C4E90703A561002516
:109CA000134801F00DFD134B134800221A7001F008
:109CB00053FC68B975B1236A012B14BF012002203F
:109CC000CFE7FFF795FF0125EAE7FFF71DFFE6E77E
:109CD0000320C6E70120C4E7236BEA1AF1181844F1
:109CE000FFF742FF0028DAD1CCE700BF687C0020F4
:109CF0008C7C002089600020FD9A070008B540F6A2
:109D0000F8700368013302D10749FFF7D5FA40F62E
:109D1000FC700368013305D14FF4FC21BDE8084015
:109D2000FFF7CABA08BD00BF008007000A4AD2F890
:109D300000347BB109480023D2F80815D940C9077F
:109D400048BF03F5C07103F1010348BF42F8210089
:109D5000072BF1D1704700BF000001403546526E1D
:109D6000FFF7E4BF044B002282B01A601B68019326
:109D7000019B02B0704700BF0001014038B50E4C96
:109D80002278BAB90D4BD3F800248AB1D3F8045520
:109D9000FFF7CCFF40F61650A842B8BF2846084946
:109DA000A0F54860FFF798FE064B4FF480321A602A
:109DB0000123237038BD00BF8A60002000000140ED
:109DC000619D070000E100E0034BD3F800340BB1C4
:109DD000FFF7ACBF704700BF000001400023C0E99F
:109DE0000232C0E900118B881A440261B1F90630D1
:109DF0001A4442610888003018BF0120704710B52E
:109E0000426811880346002939D002F110014160EF
:109E1000148A2CB9C2680168FFF7E0FF204610BD24
:109E20009078118900F03004302C1BD1947C04F020
:109E30003004302C1DD190881969091A196100214C
:109E4000907810F0300F02BF986801309860908AC7
:109E50000844196901441961B2F916201144596185
:109E60000120DCE700F0F004202C02D150894143AE
:109E7000E6E700F0C000802808BF0421E0E70846BC
:109E8000CDE770B5456804460E4663681A88B2424D
:109E900004D19B7803F00F03082B07D12046FFF76E
:109EA000AEFF6368AB42F0D1002070BD0120FCE73B
:109EB00043681A44426011B101399A4201D101202C
:109EC000704713F8010B01F8010FF6E770B542680F
:109ED000927802F00F01082986B003461FD103696A
:109EE0001C6800260CB906B070BD236826739D68F7
:109EF000626829466846FFF771FF6368049304F1BE
:109F00000C030593AB7803F0C003802B08BF231D1F
:109F1000684608BF0493FFF7D9FFA468E2E712F090
:109F2000C00120D102F0300010280ED15A69117002
:109F30005A6818699378D46803F00F03072B09D186
:109F40000146204600F017F8CDE79006F0D55B6992
:109F50001980C8E71289214614B103F0B5FAC2E7A7
:109F600003F0C0FABFE78029BDD100690021920645
:109F70000160B8D5EBE77FB50A4601466846FFF7B2
:109F80002DFF30B16846FFF7A1FF6846FFF737FFA6
:109F9000F7E707B05DF804FB10B50122036804463B
:109FA000984710B1A368013BA36010BD2DE9F341B0
:109FB00083680746884623B90026304602B0BDE8CC
:109FC000F0810DF10701FFF7E7FF06460028F3D007
:109FD0009DF80740220616D504F07F040725BB68CC
:109FE000002BE9D00DF107013846FFF7D5FF002817
:109FF000E2D09DF8072002F07F03AB401C4313061C
:10A0000005F1070502D4C8F80040D6E7232DE6D1B4
:10A01000D2E7000030B5044685B01546A9B90268FC
:10A02000114B9A4211D0102D06D82A466946204677
:10A03000FFF7F0FF05B030BD102269462046FFF75C
:10A04000E9FF0028F6D0103DEDE7A368AB4201D24E
:10A050000020EFE723682A46204698470028F7D0DB
:10A06000A3685D1BA560E5E7B19E0700F7B50E4646
:10A0700001A907461546FFF799FFA8B1019A0123E8
:10A08000D3184FF0000404D2B17801F0C001802948
:10A0900001D1204608E031899942FAD32946384651
:10A0A000FFF7B8FF019BEC5403B0F0BD73B50E464B
:10A0B00001A905461446FFF779FFB8B1019BB3F536
:10A0C000803F07D202229A1804D2B17801F0C00171
:10A0D000802901D1002009E031899142FAD321463B
:10A0E0001A4621F8023B2846FFF794FF02B070BDE4
:10A0F00010B5034C82600022C0E90041C26010BD6F
:10A10000B19E07002DE9F347002580460F462E46F5
:10A110002C46D8F8083023B30DF107014046FFF76D
:10A120003BFFF0B19DF807C00CF07F025FFA82F9A7
:10A13000A4F12003C4F1200109FA03F329FA01F183
:10A1400009FA04F20B431CF0800F45EA020546EAC7
:10A15000030604F1070402D1C7E9005602E0462CC9
:10A16000D7D1002002B0BDE8F08773B50C46694630
:10A170001646FFF7C7FF68B12389082B0CD1DDE92C
:10A180000045C6E90045DDE90023AB4206BFA24217
:10A190000120002002B070BD042B04D1009B33606D
:10A1A0001C460025EFE7022B4FF0000004D1009B76
:10A1B00033809CB20546E6E7012BEBD1009B337060
:10A1C00003F0FF04F6E737B50D4669461446FFF77E
:10A1D00099FF30B12A89082ADDE9003103D1C4E9A9
:10A1E000003103B030BD042A18464FEAE37108D1AC
:10A1F00023601A460B468B4206BF82420120002094
:10A20000EFE7022A04D11BB223801AB2D317F2E778
:10A21000012A03D15BB223705AB2F7E70020E0E7CE
:10A22000F7B50C46002119702170116001A907468D
:10A2300015461E46FFF7BAFE30B9BB6813B90123B5
:10A240003370002003B0F0BD01990029F7D0CB088E
:10A2500001F007012B602170F4E713B504460529CE
:10A260001FD8DFE801F0030F151E1E1C012201A9F3
:10A270002046FFF7CFFE18B19DF90430002BF5DB27
:10A2800002B010BD082200212046FFF7C3FEF7E709
:10A2900001A9FFF78BFE0028F2D0019AF3E7042210
:10A2A000F1E70020ECE773B50D4601A90446FFF77E
:10A2B0007DFE064618B90026304602B070BD94E80F
:10A2C0000F0085E80F0001998A42F4D3A960A368C2
:10A2D0005B1AA360F0E700002DE9F0435568AB7806
:10A2E00013F0C00489B006468C46174603D0402CB4
:10A2F0006AD000240AE003F00F025E4903F0300345
:10A30000102B51F8228020D004D8CBB1204609B0C0
:10A31000BDE8F083202B1ED0302BF7D17B69298834
:10A320001980072A0AD17B6838691A89214603F007
:10A33000D9F87B683969D868FFF71DFE3A6940E0B3
:10A340003A692946C0470446E0E77B6901221A7052
:10A350003A697968F6E7BCF1020FD7F8149024D176
:10A36000042A22D804A9FFF79EFF04460028C0D083
:10A37000069B2BB17968B9F800304A899A4205D812
:10A38000059B7360069B002BC0D0B2E708893A6931
:10A3900003FB002204A8C04728B1B9F800300133FC
:10A3A000A9F80030E4E70446EAE7B9F800306A8922
:10A3B0009A429ED93A692989581CA9F8000003FBE2
:10A3C000012279683046BDE7D2F81080454655F83D
:10A3D000043B13B9FFF741FFB5E7022914D104A9E3
:10A3E000FFF761FF002884D0D8F8003079682A464A
:10A3F00004A89847044600283FF47BAF069B002B37
:10A40000F2D1059B736081E701292BD04CB24CB18E
:10A4100005297FF46EAF04220DEB0201FFF7FAFD70
:10A42000042424E00DF1040901340B2C3FF461AF46
:10A43000012249463046FFF7EDFD00283FF459AFB1
:10A4400019F9013B002BEFDB0B4B049301ABCDE97A
:10A45000053400230793D8F8003079682A4604A809
:10A46000984770E7082201A9FFF7D4FD08240028C7
:10A47000EAD13EE7D8D60700B19E07002DE9F04F9C
:10A4800091B00446002604A8CDE90266FFF7A6FCB9
:10A49000A3683BBBDDE9053404A89D78FFF7AFFC5A
:10A4A0000028F7D115F0300F03D1059B1B8803B1AD
:10A4B0000134002C00F0A9806309002202A9934214
:10A4C00040F09C8010AA02EB830304F01F04C4F147
:10A4D00020044FF0FF3053F8383CE040C31A584294
:10A4E00058410DE00DF1030301AA0DF102012046D0
:10A4F000FFF796FE38B99DF80330002BCAD1002033
:10A5000011B0BDE8F08F019904A8FFF7BAFC00284C
:10A5100050D1019BB3427DD3059D059A937803F0FA
:10A520000F03082B7FD004A8FFF769FC059B9D4211
:10A53000F3D14FF0FF36019FB7426BD3089B9DF8D4
:10A540000290D4F808801D684FF0010AA368002D1E
:10A550005DD098459CD12B68D3F800B0BBF1000FBB
:10A5600008D04B463A4629462046D8470028C6D050
:10A57000AD68EBE7D3F808B0BBF800309F42F7D1E5
:10A580006A6859460AA8FFF729FC6B680E9305F123
:10A590000C030F939BF8023003F0C003802B04BF21
:10A5A0002B1D0E930AAA85F80CA049462046FFF7FA
:10A5B00093FEDBE7059B9B7813F0300F0FD1069AD3
:10A5C0003F2A0CD8510910AB03EB810102F01F02A6
:10A5D0000123934051F8382C134341F8383CE56887
:10A5E0002DB104AB9DF8022001992046A84704AA8A
:10A5F0009DF802102046FFF76FFE10E051F8225040
:10A6000001357FF47DAF013259E7012078E79845A5
:10A610007FF43EAF9DF802102046FFF71EFE002893
:10A620007FF436AF6BE7168885E770B50C460646B3
:10A63000154611462046FFF79EFC2A462146304625
:10A64000BDE87040FFF71ABFF0B585B00C46CD6885
:10A65000694607461646FFF726FE68B1E06858B11E
:10A66000A37803F03003202B32462946684605D1F3
:10A67000FFF7DBFF019B7B6005B0F0BDFFF7FEFE3F
:10A68000F8E7D3B50C466946FFF73CFD80B1DDE93C
:10A69000001300274A0801F0010642EAC37256EA95
:10A6A00007014FEA53031CBFD243DB43C4E9002335
:10A6B00002B0D0BD37B50D4669461446FFF7E1FF3D
:10A6C00068B12B89082B0CD1DDE90001C4E9000138
:10A6D000DDE900238B4206BF82420120002003B047
:10A6E00030BD042B03D100982060C117F0E7022B86
:10A6F00004D1BDF90000208000B2F6E7012B04D19F
:10A700009DF90000207040B2EFE70020E7E713B5A5
:10A7100004220C460DEB0201FFF77CFC08B1019B03
:10A72000236002B010BD1146FFF7F1BF13B5082238
:10A730000C466946FFF76EFC18B1DDE90023C4E959
:10A74000002302B010BD1146FFF7F0BF10B513682B
:10A750001F2B144607D900220830FEF793FC08B9D6
:10A760002023236010BD48F21450FBE70830FEF7A9
:10A7700065BC0830FEF732BC831F012B10B50446C0
:10A7800002D8002000F084FF034B1B681BB1204659
:10A79000BDE81040184710BD8C60002008B5074B7D
:10A7A00018600020FFF7E8FF054800F059FF20B9C6
:10A7B0000348BDE8084000F0C3BD08BD8C60002020
:10A7C00079A707006CDF70476DDF704772DF704755
:10A7D00073DF704774DF704775DF704776DF70474F
:10A7E0007ADF70477CDF70477DDF70477FDF70471F
:10A7F00086DF70478FDF704790DF7047A8DF7047B4
:10A80000AADF7047ADDF7047AEDF7047B0DF70473B
:10A81000B1DF7047B5DF704762DF704766DF7047B2
:10A8200013DF70477FB50023CDF80A30ADF80E3046
:10A830000A4BADF806109B89ADF8083001238DF85E
:10A840000A300DF10603CDE90430054B02A9188842
:10A85000FFF7DAFF07B05DF804FB00BFFA700020D5
:10A860009659002001460148FEF7B1B80CDA0700FE
:10A8700030B518228DB000210DEB020002F032FE3F
:10A88000282308931623ADF806300023CDF80E30A8
:10A89000CDF81230ADF816301A4B02930222062181
:10A8A00009251A7099701A71032159220124D9704F
:10A8B0005A710DF10601FE2258198DF818408DF8D5
:10A8C0002D40ADF80C505C709A71FFF78DFFB8B950
:10A8D000BDF806201D721119D971BDF80C301A444B
:10A8E000094BADF80C2002A906AA1846FFF76EFF27
:10A8F00030B91878FFF76EFF21461878FFF768FF28
:10A900000DB030BD0E71002094590020F0B50388C1
:10A910001F2B8BB0044600F0C28029D8112B56D0D3
:10A9200006D8012B00F0CC80102B42D00BB0F0BD2C
:10A93000142B00F042811A2B34D0132BF6D10023B4
:10A94000A14CADF812300223ADF8103004AA02ABCE
:10A9500042F6052120880593FFF754FF08B1FEF762
:10A960002AFE00231A4685212088FFF73FFF86E054
:10A97000512B00F0AB800ED8232B00F08880502B99
:10A9800039D0212BD2D1002304A98088ADF8103012
:10A99000FFF730FF73E0552B59D0562B00F086801F
:10A9A000522BC3D100231A461946A088FFF730FF67
:10A9B00065E0854B82881A80844A12681C460AB179
:10A9C0000120904782492088FFF706FFAEE77E4BC3
:10A9D0004FF6FF721A807F4B1B685A0704D4FFF7AB
:10A9E00047FF08B1FEF7E7FD784B1B68002B9DD0B1
:10A9F000022098479AE7784EC288B3889A4295D148
:10AA00007648FDF7BEFF054600288FD0228A04F164
:10AA1000120102F059FD1822002104A802F062FD83
:10AA200008238DF810306E4B06936E4B0596CDE9DA
:10AA3000073504A8238AADF8243000F077FC0028FD
:10AA40003FF474AF29466548FDF7C1FF6EE7C18842
:10AA5000F6291AD8CB1E9B070DD0CB1F9BB2013B0A
:10AA60005A4202F0030203F0030301F1FF3158BF21
:10AA70005342C91A89B2544B1888FFF7CBFE0028FD
:10AA80003FF454AFFEF797FD50E7F721F3E70022BC
:10AA900004A98088CDE90422FFF7AEFEEFE74A4B18
:10AAA00000F108011888FFF797FEE8E78379002B8B
:10AAB0007FF43CAF444B13211888FFF78FFEDEE78D
:10AAC000414B00211888FFF7A9FED8E78379002BB6
:10AAD0003FF42CAF022B7FF429AF3F4900898A89CC
:10AAE00090420E467FF422AFA27B012A7FF41EAF74
:10AAF00000220120CDE904228DF81600208AADF84D
:10AB00001800314D608AADF81A0004F114008DF878
:10AB100010300790ADF80A20ADF8083002AA01AB5A
:10AB2000098A28880393FFF76DFE2F4660B91846FF
:10AB3000FEF75EFD40B940F2FD1304A92888ADF888
:10AB40001430FFF763FEF1E6002304A93888ADF85E
:10AB50001430FFF75BFE014600287FF4E7AE1822B1
:10AB600004A802F0BFFC237D1D4A8DF81030022B93
:10AB70000596069218D0062B10D0012B10D11A4B37
:10AB80001A881A4B1A80637DD4F816200893012B7B
:10AB9000099205D1164800F07BFD01E0637D089322
:10ABA00004A800F0C3FBC1E6A27D637D43EA022353
:10ABB0000D4A13800D4A1380F2E700231A46194606
:10ABC0008088FFF715FE5AE796590020347100205F
:10ABD000F6D8070030710020FA7000200CDA070068
:10ABE0005DAC070065A80700387100203A710020AD
:10ABF000F8D9070038B514490A6812F0010321D0CA
:10AC0000124B98421ED0124B18884FF6FF73984291
:10AC100013D042F004020A601321FFF7DFFD90B960
:10AC20000C4DC82445F001054FF47A40A847013C7B
:10AC3000FAD1BDE8384001F00DBB074B1878FFF79B
:10AC4000C9FDF6E7002038BD30710020F8D90700B3
:10AC500096590020F0D807009459002010B50446FA
:10AC600086B01122002101A802F03CFC2378082BB9
:10AC70000BD1374A374913880988013B9BB21380AF
:10AC8000D9B1D3B9032311802370627823788DF86A
:10AC900005306021012A8DF804108DF806200ED0B1
:10ACA0000B2A12D100F092F98DF80700002000F075
:10ACB00087F9042101A8FFF7B5FD06B010BD062BEA
:10ACC00005D0082B29D0032B27D00321F2E7E16818
:10ACD0008DF80710D4E90123080A8DF80800080C44
:10ACE000090E8DF80A10110A8DF80B208DF80C1042
:10ACF000110C120E8DF80E201A0A8DF80F308DF8F7
:10AD000010201A0C1B0E8DF80D108DF809008DF80F
:10AD100011208DF812300F21CCE7D4E90123110A5C
:10AD20008DF807208DF80810110C120E8DF80A20EE
:10AD30001A0A8DF80B308DF80C201A0C1B0E8DF8AA
:10AD400009108DF80D208DF80E300B21B2E700BFF1
:10AD50003A710020387100202DE9F043444B95B042
:10AD600005464FF6FF721A8001204FF659632A46B6
:10AD700002A98DF80A00ADF80830FFF73FFD044640
:10AD8000002871D13B4B04AA03F11007164618683E
:10AD90005968144603C40833BB422246F7D1A91CA4
:10ADA0003046FFF739FD044600285DD101461C22DC
:10ADB0000DA802F097FB9DF83430ADF8044043F045
:10ADC00004038DF834300223ADF80C30AB788DF8E5
:10ADD0000E3004F0F80343F003038DF80630F4233B
:10ADE000CDE90A44ADF82C302B4601AE4FF01109E5
:10ADF00003AF33F8040B0C9408AA0DA98DF8059045
:10AE0000CDE90876FFF7FCFCA046044660BB01468E
:10AE10001C220DA802F066FB9DF83430ADF804400A
:10AE200023F0180343F018038DF834300123ADF8F4
:10AE30000C30AB788DF80E301723CDE90A44ADF80D
:10AE40002C302B4608F0E80848F0130833F80C0BB8
:10AE50000C9408AA0DA98DF805908DF80680CDE90F
:10AE60000876FFF7CDFC0446204615B0BDE8F08318
:10AE700096590020C8D8070030B5334C236813F02A
:10AE8000010585B05DD1314B18603148FDF762FD99
:10AE9000029500F0B6F800284CD12E48FFF7C0FC10
:10AEA000002847D101F098F9002843D102A801F009
:10AEB00061FA00283ED102A9012001F065FA0028BC
:10AEC00038D102A801F0C8FA002833D100F0A0FB65
:10AED00030B1214800F090FB236843F00203236067
:10AEE000112302A88DF80430FFF76EFC10BB9DF80B
:10AEF000093002A801338DF80930FFF763FCC8B9A7
:10AF000023689B0718D514498869043182B201A8C7
:10AF1000FFF768FC70B91148FFF762FC50B91048A0
:10AF2000FFF71AFF30B9FFF7A3FC18B9236843F005
:10AF30000103236005B030BD0A4802F0DBFA09497D
:10AF4000E4E70020F6E700BF3071002034710020F4
:10AF50000CDA07000080070090600020F6D8070098
:10AF6000FA700020D8D8070043690BB1C0681847B1
:10AF7000704700000449054B0022904208BF194663
:10AF80000348FDF73EBD00BF58D507002CD507008C
:10AF9000085A002007B5009313460A4601460348A5
:10AFA000FDF733FD03B05DF804FB00BF085A002035
:10AFB00013460A4601460148FDF72EBD085A0020F7
:10AFC000014B18700B2070473C710020024B00228F
:10AFD00018781A70704700BF3C71002018DF704766
:10AFE00030B585B0054610220C466846002102F0B7
:10AFF00079FAA408684601950294FFF7EFFF05B0BF
:10B0000030BD1FB50023CDE9013303936846022309
:10B010000093FFF7E3FF05B05DF804FB4FF000532A
:10B020004FF480521A60002070470000014B062048
:10B030001B681847487100200A2803D90B38C0B292
:10B04000FFF7BEBF7047000010B5044686B0002071
:10B05000FDF7EAFC014630B1164A18212046FDF7FB
:10B06000C5FA06B010BD1822684602F03BFA042368
:10B070008DF80030104A114B116D1B68994211D1A7
:10B080000F4B186800F06CFF8DF80100FFF7D4FF3C
:10B09000D4E901138DF8010068469847094800F08B
:10B0A0005BFADEE701238DF801306846D4E901132D
:10B0B0009847D6E749B00700687C0020407100201F
:10B0C000447100202DB00700F0B5044687B0162269
:10B0D00000210DF1020002F005FA23788DF800300E
:10B0E00001220C2B8DF8012000F214819A4012F4F9
:10B0F000AD7F15D1510706D4D30440F10B81864BA7
:10B1000007201B689847D4E90113684698479DF8C3
:10B110000130012B00F0F3807F4B05201B68EDE030
:10B12000062B7E4A01D0012B01D1216911701178C3
:10B13000012904D0022954D00023137099E0013B67
:10B14000072BE0D801A252F823F000BF6DB1070031
:10B1500007B10700D7B10700ABB1070007B107007F
:10B16000D1B1070007B1070085B107006A4B032082
:10B170001B689847606900F0D5FCFFF75DFF8DF80C
:10B180000100C0E7A18A206900F0E4FCFFF754FF4A
:10B19000634B8DF80100DA6B1B6C0293E36801923C
:10B1A000002BB0D020699847ADE75E495E4800F0BB
:10B1B0001FFDFFF741FF01288DF80100A3D10020FA
:10B1C00000F0CAF900289ED00A238DF801309AE7D2
:10B1D0004FF400730393524BDA6B1B6C0192029392
:10B1E00091E7013B072B8ED801A252F823F000BF54
:10B1F00011B2070007B10700CFB20700D9B20700AC
:10B2000007B1070003B3070007B1070077B20700D3
:10B2100000F0C0FC08B90823D7E762690AB9032324
:10B22000D3E7C2F30B0333B13D4B3E495B6D096875
:10B2300013448B42F3D1B2F5805F01D90423C4E7F4
:10B24000374B3849586D096815188D42E3D85A6450
:10B25000DA6C9A6418651863334B61691B6801F6F0
:10B26000FF710022090B1844FFF7A2FE00283FF4EB
:10B270004AAF0523A9E700F08DFC0028CBD0284D6C
:10B28000A18AD5E914329B1A6A6C0B449342C6D842
:10B29000254B2E6B1B68206905F148021E44FDF703
:10B2A00077FAE368A28A216907463046FFF772FE03
:10B2B00008B1E36876E7A28A2B6B029713442B63ED
:10B2C000A38A2A6DAF6413442B6501931BE7144BCB
:10B2D0009A6C02921B6DF8E7114BD3E91402596C7A
:10B2E000821A8A4297D19A6C586500212046596487
:10B2F000DA64FFF7A9FE084B1B680420984707B0E3
:10B30000F0BD074B9A6C1B6D01934FF48053029272
:10B310000393F8E6022358E748710020985900206B
:10B32000687C0020407100204471002083681BB1BC
:10B33000024A1821FDF75AB907207047C9B0070023
:10B3400038B50546C0B10120FFF714FE044648B9E0
:10B3500000F0DAFB00F01EFC30B9084B00201D6045
:10B36000FFF72EFE204638BD0549064800F040FC98
:10B370000128F2D00324F5E70724F3E74871002001
:10B3800040710020447100202DE9F04115464FF432
:10B390006072064688461F4602F088F828B915B93B
:10B3A0000020BDE8F081A847FAE7002201213046DD
:10B3B000FFF7FEFD70B94FF460724146384602F067
:10B3C00083F82B464FF4607239463046FFF7E2FDB2
:10B3D0000028E5D00320E4E72DE9F0413D4C236847
:10B3E00001335CD000225821201DFDF7D1F9D4F89B
:10B3F0000080A8EB0002D2F1000848EB0208364DAD
:10B40000364E2F683B6801335ED000225821381D2C
:10B41000FDF7BEF93B68834244D17C68012C0AD019
:10B420000022C32107F51870FDF7B2F9D7F85C4286
:10B43000231A5C425C41B8F1000F35D04FF46072C2
:10B440002449264802F040F864B12968244854226F
:10B45000043102F039F8296822484FF432725C3125
:10B4600002F032F87468012C2CD11F49402201F5FA
:10B47000E47002F029F81D491C2201F5E47002F085
:10B4800023F81B4986F8A1420023042201F28620FA
:10B4900086F8603286F8E23202F016F810E04FF0DB
:10B4A0000008ACE70024C6E724B14FF460722968B5
:10B4B0000A48D5E74FF460720021084802F012F8FC
:10B4C00002237360BDE8F081B8F1000FF2D00024D0
:10B4D000B4E700BF00F007009C590020687C002002
:10B4E0006C7C0020C47C0020C47D0020047E0020F1
:10B4F000847C002070B50D4C064600225821204661
:10B50000FDF746F9002244F8040CC32104F5177036
:10B51000FDF73EF9251FC4F8580232462946044B70
:10B520000448BDE87040FFF72FBF00BF6C7C0020CF
:10B530004C71002000F0070002460248024B0068F0
:10B54000FFF722BF9C590020CC7400200149FFF76F
:10B55000F3BF00BF00F0070038B505460020FFF735
:10B56000C9FF044618B903492846FFF7E5FF2046FE
:10B5700038BD00BF687C002010B5FFF7FBFC044617
:10B5800028B9FFF729FF2046FFF7E6FF00B10320A7
:10B5900010BD000010B5084C4FF40072FF2120468A
:10B5A00001F0A0FF20220021A4F1240001F09AFF65
:10B5B000002344F82C3C10BDC47C002029DF7047D8
:10B5C00038B50C4D0446D5F8643378B101330FD14A
:10B5D000002218210430FDF7DBF82060214605F534
:10B5E00059700722BDE83840FFF7E8BF0E2038BD8C
:10B5F0000820FCE700F0070008B528B11C22034929
:10B6000001F062FF002008BD0E20FCE764F3070094
:10B6100010B5064C002218212046FDF7B9F854F861
:10B62000043C1B1A5842584110BD00BF68F3070084
:10B6300010B50A4CD4F82433D4F8642313400133F2
:10B6400009D04FF4FE20FDF71FFEC92221464FF41A
:10B65000FE20FDF747FE002010BD00BF687C0020E3
:10B66000F8B5094E094CA41B0746E4080025A5427D
:10B6700001D10020F8BD56F83530384698470028EB
:10B68000F8D10135F3E700BFF8D9070000DA070069
:10B69000F8B5094E094CA41B0746E40800250436FA
:10B6A000A54201D10020F8BD56F8353038469847FC
:10B6B0000028F8D10135F3E7F8D9070000DA0700D0
:10B6C00008B50C22002101F00DFF024B00221A6385
:10B6D00008BD00BF687C002043F204031A68084BD1
:10B6E0009A4201BF43F20803186800F6FF7020F485
:10B6F0007F600CBF20F00F004FF48050704700BFF8
:10B70000DBE5B15108B5FFF7E7FF054B9B6918442E
:10B7100000F6FF7020F47F6020F00F0008BD00BF2E
:10B72000687C00204FF48050704700002DE9F84FEE
:10B730001F46224BDFF890A01E6A044615464FF0C4
:10B74000000843F204095FFA88FBBBF1010F14D033
:10B75000BBF1020F1DD0FFF7D5FF65B1721E53423A
:10B760005341174A101AA04200D3F1B1ABB1A04225
:10B770001BD2042020E02B46F3E7FFF7ADFF37B9DB
:10B78000D9F80030B3EB0A0318BF0123E9E75B46A1
:10B79000E7E701234FF48050E3E708F10108B8F12F
:10B7A000030FD0D1A042E4D302E0BBF1000F02D0DE
:10B7B0000448FFF785FF0020BDE8F88F687C002073
:10B7C00000500700807C0020DBE5B15190F8552047
:10B7D00012F0FB0F07D190F8643023B1836ECBB128
:10B7E0000B600120704712F0010303D090F856302F
:10B7F00003B1836D9207F2D590F85C20002AEED059
:10B80000054A006EC2F5FC22904201D80344E6E7E7
:10B81000042070470F2070470080070030B55B6838
:10B82000DA680D4B9A4208D10C490A6812B90C4AE1
:10B8300014681CB10B4B00221A7030BDD0E90134E2
:10B840001C4413F9015B002DA4EB0300F9DB0B6032
:10B850001060044B0122EFE7A4D7070074780020A2
:10B86000707800207878002010B543F20403194A5C
:10B870001C68944201462BD042F20403C358981A24
:10B88000434243419442184621D142F20403CB582B
:10B89000A3421CD14FF4405301F500521B7812789B
:10B8A000142B81BF43F214030B481B68B3FBF0F366
:10B8B00098BF0023142A89BF42F21402002088583E
:10B8C000054A88BFB0FBF2F0181A18BF012010BD5E
:10B8D0000023D7E7DBE5B15140420F002DE9FF47D8
:10B8E0002F49304D8A6B304C304FDFF8D490DFF861
:10B8F000D4A06E465C313046FEF7FAFB96E80F00A6
:10B9000085E80F0000212A4B39704FF4477220461A
:10B91000C9F80010CAF80010EB6001F0E3FD224600
:10B9200024492846FEF781FE20B90027384604B096
:10B93000BDE8F0873F78002FF7D094F86C3194F889
:10B9400000801BB3B8F1000FEFD194F87231002BD7
:10B95000EBD0DAF80020D9F800103046FEF7C8FB2B
:10B9600096E80F0085E80F004FF4B272414604F5E7
:10B97000BA7001F0B7FD04F5BA720F492846FEF718
:10B9800054FE0028D1D004F5BA7406E0B8F1000FD7
:10B99000CBD0A379002BC8D00834084B1C60C5E776
:10B9A000687C0020987B00207C780020787800203C
:10B9B0001DB8070058D80700A4D70700547C002002
:10B9C000747800207078002000B591B0FDF774FD08
:10B9D000684620220749FDF7A2FD6A464023064932
:10B9E0000648FDF7C1FC064B01221A7011B05DF844
:10B9F00004FB00BF88D60700A87B002078D607008C
:10BA00004C780020F0B5ABB004460E4617461D46F4
:10BA10007822202300210CA8039301F063FD114B31
:10BA20001B780BB9FFF7D0FF2DB12146202204A8C7
:10BA3000FDF76AFD04AC03AB0B4D019300953B464B
:10BA400032460A490CA8FDF71DFD48B920222146BF
:10BA5000284601F02BFDB0FA80F040092BB0F0BD74
:10BA60000020FBE74C7800204D780020FCD6070032
:10BA7000F0B5A3B006460F4615461C467822202393
:10BA8000002104A8029301F02DFD00230393194B1C
:10BA90001B780BB9FFF798FF2FB336BB02AB164EDE
:10BAA00001930096289B1549224604A8FDF7EAFC5D
:10BAB000E8B9402D1BD1124C2A463946204601F0E8
:10BAC00003FD20212046FDF736FDCDE90045029B10
:10BAD0000C49324603A8FDF763FC00280CBF012087
:10BAE000052023B0F0BD1320FBE71620F9E70A205C
:10BAF000F7E700BF4C780020F07B0020FCD6070061
:10BB0000107C0020A87B002008B5044B986B08B17E
:10BB1000FFF7E4FE024B187008BD00BF687C0020F0
:10BB2000507C002010B5044658B1B0F5007F0AD80B
:10BB3000064B00221A70FFF72DFD054B01209C6378
:10BB400010BD0320FCE70420FAE700BF507C002072
:10BB5000687C002070B50E4C0646E06BA36B421863
:10BB60009A420D4611D85C300A462044314601F015
:10BB7000ABFCE36B04F140022B4429463046E363FF
:10BB8000FCF706FE2064012070BD0320FCE700BF27
:10BB9000687C0020014B1878704700BF507C002063
:10BBA00013B5104C94F86C21B2B194F8D802B4F8E3
:10BBB000DA2204F5377104F5B8740B4B1B68009357
:10BBC0000A4B1B68FFF754FF012809D1201D02B062
:10BBD000BDE8104000F0C8B9114610460434ECE747
:10BBE00002B010BD7C7800207078002074780020AE
:10BBF0002DE9F0411F4BD3E90E329A4207460D461C
:10BC000033D1DFF8788098F800604EB1FFF77AFD05
:10BC1000194B386029461868BDE8F041FFF7D6BDDA
:10BC2000FFF75CFE18B3FFF7BBFF01283E60044638
:10BC30002E6017D1104B29461868FFF7C7FD012861
:10BC400004460FD10346324631462868FFF76EFDA1
:10BC500038B9FFF757FD88F8004038602046BDE846
:10BC6000F0810424FFF796FCF8E70824F6E70524A2
:10BC7000F4E700BF687C0020547C0020507C00204A
:10BC800001237230FFF7BEBE37B503780D4611466B
:10BC9000032B03D8DFE803F022051019002003B0BE
:10BCA00030BDD0F8014000222846FCF771FD8442E7
:10BCB00014BF00200120F2E70A4600232946013084
:10BCC00003B0BDE83040FFF79DBE00912B46411CFC
:10BCD00040220020FFF7CCFE0128E9E70120DEE743
:10BCE0002DE9F041A2B004460D469046002178228D
:10BCF0001F4604A820239DF8A460039301F0F2FBE3
:10BD000041220021204601F0EDFBB5F89430434577
:10BD100082BF442303FB085393F896602670032EDA
:10BD20001ED8DFE806F00902111F002228993846C4
:10BD3000FCF72EFDC4F80100289A39462046FFF78B
:10BD4000A3FF22B0BDE8F08103AB0193631C009315
:10BD50003A46289B094904A8FDF794FB0028EBD03C
:10BD60000020EEE7442101FB08F16B189A31B3F88B
:10BD700098202944601C01F0A7FBDDE7FCD60700F2
:10BD80002DE9F047704B1D68A4B004460F4690465D
:10BD90000A4601462846FFF773FF002800F0D280CC
:10BDA00095F8556056BB4FF00109CDE9007923465F
:10BDB0003246294613A8FFF793FF38B90525B8F195
:10BDC000000F40F0B780FFF7E5FB76E0B8F1000F19
:10BDD00070D0412213A95D4801F076FB5C4BC3F89B
:10BDE0002C901E626A689A60002239462046FCF751
:10BDF000CFFC574B0125C3E909709EE04122002189
:10BE000002A801F06FFB06F001094122002113A8EE
:10BE100006F0020601F066FBB9F1000F51D042F2C4
:10BE20000403E15803F1A34303F5471303F2D75387
:10BE30009942C3D1D5F858A00AF5FF530AF6FF720C
:10BE4000C2F30B021F339B1A42F20802A2589A4215
:10BE5000B4D343F204031B688B4213D14FF4405315
:10BE60001B78102B8ABF43F2100300221A6804F5D6
:10BE700000531B78102B8ABF42F210030023E358B3
:10BE80009A429BD12046FFF7EFFC08B1002E95D0D7
:10BE90000123CDE900A300222346294602A8FFF78B
:10BEA0001FFF00288AD0AA6DA318BA1A66B9B8F184
:10BEB000000F14D1264B01255D61284624B0BDE852
:10BEC000F0873A462346F1E70021CDE9002113A887
:10BED0004A462946FFF704FF0028E8D16EE7DFF85D
:10BEE0007080B9F1000F21D02046FFF7BDFC18B1DA
:10BEF00008F11800FFF7E4FB412202A9154801F000
:10BF0000E3FA002E14BFAC23A523C8F82C30AB6D88
:10BF1000C8F83430002E3FF467AF412213A90E4811
:10BF200001F0D2FA6B68C8F80C305DE7AA23C8F8B4
:10BF30002C30EFE70948FFF7C3FBFFF72BFB044B5F
:10BF40009C64BAE717253AE7547C0020097F00205B
:10BF5000687C0020C87E00204A7F00208C7C002066
:10BF60000122FFF70DBF0000F0B590F85430002B10
:10BF700053D090F85520032A4FD890F86E30032BF9
:10BF800049D1037A002B48D0C368342B47D143F200
:10BF90000401038A0C6823498C422BD153B14169B7
:10BFA000E9B1DBB2002100F1140543F20C06CCB27A
:10BFB000A34201D8122011E055F821703488A7421D
:10BFC00001F10101F3D1037803B3012A4068164B54
:10BFD00016D89B68984234BF10200120F0BD12B9DA
:10BFE000012BE7D8EFE712F1FF3318BF0123002B35
:10BFF000E9D1DFE713B14369002BDBD10378F6E722
:10C00000DB6898428CBF01201020E7E7012A14BFAB
:10C010000F200120E2E71420E0E70F20DEE71120E7
:10C02000DCE700BFDBE5B151687C002038B1054B8F
:10C030000360054B436001230372002070470E200C
:10C04000704700BF73C007004DC0070069B10B788F
:10C05000022B0CD1022804D003280CBF1120082089
:10C06000704703230B70002070470E207047082094
:10C07000704710B50C4681B10B78042B04D8DFE86B
:10C0800003F00E05030E0E00112010BDFFF798FA05
:10C090000028FAD102232370F7E70E20F5E70820E5
:10C0A000F3E7000070B5144B144A0C21D21AB2FB0E
:10C0B000F1F2816911F8025C044635B9006900218A
:10C0C000914205D1012323600EE04FF0FF30F6E7E7
:10C0D0001E68AE420CD1461C07D19D68D4E9000110
:10C0E000D4E90223A847206070BD5E688642F4D080
:10C0F00001310C33E4E700BF00DA07000CDA070077
:10C100001EF0040F0CBFEFF30880EFF30980FFF778
:10C11000C9BF00BF10DF704711DF704713B5044679
:10C1200009496846FCF7A6FE019808B902B010BD9F
:10C13000D0E900312046984718B16846FCF7A3FEC5
:10C14000F2E71120F2E700BF04D9070013B5044657
:10C1500007496846FCF78EFE019B0BB902B010BD83
:10C160002046D3E9002190476846FCF78CFEF3E7B0
:10C170001CD907000B4991F816335A09EC231341D7
:10C18000DB0706D5084B9A683AB94FF480030B6079
:10C19000704742F20200FDF70EBA1A6842F48002BC
:10C1A0001A60704700E100E05C7C0020084B9A6850
:10C1B00022B11A6822F480021A607047054B4FF4CE
:10C1C0008002C3F88020BFF34F8FBFF36F8F70479B
:10C1D0005C7C002000E100E0F7B5194F3C7864BBBF
:10C1E000184E012520463570FFF798FF112821D001
:10C1F0002046FFF7ABFF144B8DF803401868019001
:10C200000DF10300FCF78AFA104901A8FFF782FF3D
:10C210000446B0FA80F0400938709DF80300FCF73E
:10C22000A1FA3CB90A4B34701C70FFF7A3FF2846F3
:10C23000FFF78CFF204603B0F0BD0824FAE700BFEB
:10C24000597C0020587C0020FED80700B1950700DB
:10C250005A7C0020F7B5154F3B781BB3144E0120D4
:10C260003070FFF75BFF11284FF000051CD0022053
:10C27000FFF76CFF0DF107008DF80750FCF74EFA41
:10C28000FFF74AFF04469DF807003D70FCF76AFA85
:10C290002CB93470FFF78AFF0320FFF757FF2046C1
:10C2A00003B0F0BD0824FAE72C46F8E7597C0020DB
:10C2B000587C0020054B1B7833B1054B1B780BB124
:10C2C000FFF7C8BFFFF788BF08207047587C0020E1
:10C2D000597C0020014B1878704700BF597C002022
:10C2E00007B508496846FCF7C5FD019B13B903B0C3
:10C2F0005DF804FBD3E9002090476846FCF7C3FDD6
:10C30000F3E700BF10D90700FFF7EABF60DF70470F
:10C3100069DF704761DF704730B5114DADF5017DC4
:10C320004FF4FA740DF1020103A8ADF80240FFF7D3
:10C33000F1FF70B9294601A8FCF79CFD029B002B78
:10C34000F0D003A8D3E90021904701A8FCF79BFD9A
:10C35000F4E7052801D0FDF72EF90DF5017D30BD7C
:10C3600028D90700024B1B780BB1FFF7D5BF7047E8
:10C370005B7C002018B1034B0360002070470E2047
:10C38000704700BF68590020F0B5074685B00D46DC
:10C3900000295DD02F4B0B600C22002101A801F079
:10C3A000A1F8012606232A68ADF8083001A920204B
:10C3B0008DF804708DF80660FFF7AAFF0C220021AB
:10C3C00001A801F08FF800242A688DF8056001A902
:10C3D0004020ADF80640FFF79BFF0C22214601A844
:10C3E00001F080F8F7232A68ADF8063001A9232070
:10C3F0008DF80470FFF78CFF0C22214601A801F094
:10C4000071F82A688DF8046001A93046FFF780FFB3
:10C410000C22214601A801F065F84FF4B0632A68A8
:10C42000019301A9A120FFF773FF0C22214601A867
:10C4300001F058F89DF804302A6864F3000301A95C
:10C44000A0208DF80430FFF763FF204605B0F0BD53
:10C450000E20FBE76859002008B5FFF757FF10B919
:10C46000014B01221A7008BD5B7C00204BDF704736
:10C470001FB50D4C01A8FFF7F9FF70B9214602A8BE
:10C48000FCF7F8FC039B002BF4D00198D3E90021C2
:10C49000904702A8FCF7F7FCF4E7052801D0FDF768
:10C4A0008AF804B010BD00BF34D907008B180244CD
:10C4B0008B4200D1704713F8010D02F8010DF7E728
:10C4C000C3F10803DB0070B50133002403A500BFEE
:10C4D0005B1920C940CAAD1920C0184720C940CAFD
:10C4E000754120C020C940CA754120C020C940CA3A
:10C4F000754120C020C940CA754120C020C940CA2A
:10C50000754120C020C940CA754120C020C940CA19
:10C51000754120C06441204670BD00BF000000008E
:10C52000C3F10803DB0070B50133002403A500BF8D
:10C530005B1920C940CAAD1B20C0184720C940CA9A
:10C54000B54120C020C940CAB54120C020C940CA59
:10C55000B54120C020C940CAB54120C020C940CA49
:10C56000B54120C020C940CAB54120C020C940CA39
:10C57000B54120C06441B4FA84F0400970BD00BFE9
:10C580002DE9F04F08B4F8CA04B451F8042BA3FB0A
:10C59000028940F8048B4FF0000AE4FB629A4FF0E6
:10C5A000000BE5FB62AB4FF0000CE6FB62BC4FF00A
:10C5B000000EE7FB62CE51F8042B4FF00008E3FBBE
:10C5C000628940F8048BE4FB629AE5FB62ABE6FB10
:10C5D00062BCE7FB62CE51F8042B4FF00008E3FB8E
:10C5E000628940F8048BE4FB629AE5FB62ABE6FBF0
:10C5F00062BCE7FB62CE51F8042B4FF00008E3FB6E
:10C60000628940F8048BE4FB629AE5FB62ABE6FBCF
:10C6100062BCE7FB62CE51F8042B4FF00008E3FB4D
:10C62000628940F8048BE4FB629AE5FB62ABE6FBAF
:10C6300062BCE7FB62CE40F8049B40F804AB40F8D4
:10C6400004BB40F804CB40F804EB0CBC052B00F015
:10C650001E810C68A0F11400A1F11401A2F11402D2
:10C6600052F804EB4FF0000550F8046BE4FB6E56F3
:10C6700052F804EB50F8047BE4FB6E6752F804EBCD
:10C6800050F8048BE4FB6E7852F804EB50F8049BEE
:10C69000E4FB6E8952F804EB50F804ABE4FB6E9AAD
:10C6A000A0F1140052F8044B51F804EB4FF0000CC9
:10C6B000E4FB6EC540F804CB51F804EBE4FB6E5686
:10C6C00040F8045B51F804EBE4FB6E6740F8046B40
:10C6D00051F804EBE4FB6E7840F8047B51F804EB6E
:10C6E000E4FB6E8940F8048B51F804EBE4FB6E9A8E
:10C6F000A0E80006062B00F0CA800C68A0F1180024
:10C70000A1F11801A2F1180252F804EB4FF0000554
:10C7100050F8046BE4FB6E5652F804EB50F8047BBF
:10C72000E4FB6E6752F804EB50F8048BE4FB6E7880
:10C7300052F804EB50F8049BE4FB6E8952F804EBCA
:10C7400050F804ABE4FB6E9A52F804EB50F804BBCB
:10C75000E4FB6EABA0F1180052F8044B51F804EB67
:10C760004FF0000CE4FB6EC540F804CB51F804EB2D
:10C77000E4FB6E5640F8045B51F804EBE4FB6E6793
:10C7800040F8046B51F804EBE4FB6E7840F8047B4E
:10C7900051F804EBE4FB6E8940F8048B51F804EB8C
:10C7A000E4FB6E9A40F8049B51F804EBE4FB6EAB9B
:10C7B000A0E8000C072B6AD008B40C68A0F11C009C
:10C7C000A1F11C01A2F11C0252F804EB4FF000058C
:10C7D00050F8046BE4FB6E5652F804EB50F8047BFF
:10C7E000E4FB6E6752F804EB50F8048BE4FB6E78C0
:10C7F00052F804EB50F8049BE4FB6E8952F804EB0A
:10C8000050F804ABE4FB6E9A52F804EB50F804BB0A
:10C81000E4FB6EAB52F804EB50F804CBE4FB6EBCC7
:10C82000A0F11C0052F8044B51F804EB4FF0000348
:10C83000E4FB6E3540F8043B51F804EBE4FB6E5624
:10C8400040F8045B51F804EBE4FB6E6740F8046BBE
:10C8500051F804EBE4FB6E7840F8047B51F804EBEC
:10C86000E4FB6E8940F8048B51F804EBE4FB6E9A0C
:10C8700040F8049B51F804EBE4FB6EAB40F804ABCA
:10C8800051F804EBE4FB6EBCA0E8001808BCBDE85E
:10C89000F08F002310B51C465AB2914200DC10BD47
:10C8A00040F823400133F7E710B500231A465CB285
:10C8B000A14203DCB2FA82F0400910BD50F82340D7
:10C8C00001332243F3E74A11012350F8220001F01B
:10C8D0001F0103FA01F108407047013910B549B250
:10C8E000041D0A06CBB204D4013954F82120002AD1
:10C8F000F7D001335BB273B103F18042013A50F8D3
:10C900002220002022B9013B00EB431318B210BDD6
:10C9100052080130F6E71846F9E710B500235CB27B
:10C92000A24200DC10BD51F8234040F823400133FF
:10C93000F5E710B5013A52B2130601D5002010BD3B
:10C9400050F8224051F822309C4205D802F1FF32C3
:10C95000F2D24FF0FF30F2E70120F0E700EB810167
:10C960000023884200D3704751F8042D43EA520354
:10C970000B60D307F5E770B59DF910401E462346BE
:10C980000546FFF79DFD30B9224629463046FFF7A0
:10C99000D0FF012807D02346324629462846BDE865
:10C9A0007040FFF7BDBD70BD70B59DF910401E46CB
:10C9B00023460546FFF7B4FD38B1234632462946E3
:10C9C0002846BDE87040FFF77BBD70BD2DE9F04FF4
:10C9D000B5B004AC9DF9F8501F4681462B46204661
:10C9E000FFF7CEFD24AB29463846CDE90234FFF7E8
:10C9F00074FFC0EB851004B2002C2646B8BF04F1CA
:10CA00001F06634246F3471603F01F0304F01F0896
:10CA100014A858BFC3F100083146FFF73AFFB8F138
:10CA2000000F30B22DDD14AB002203EB8000C8F103
:10CA3000200C1346AB4219D32FB27B00019314ABE9
:10CA400003EB870705F1FF3834AB012603EB8808B9
:10CA5000002C54DA34AB03EB86062A4656F8C81C81
:10CA60004846FFF75AFF35B0BDE8F08F57F823600E
:10CA700006FA08F10A4340F8042B013326FA0CF2B7
:10CA8000D8E714AB2A46394603EB8000FFF745FF91
:10CA9000D2E70FFA82FE5AF8C83C53F82EB034ABF6
:10CAA00003EB8202013052F8803C0B44BBEB0303E2
:10CAB00034BF012200229B4518BF11465CF8C82CE8
:10CAC00042F82E30019B42B29A42E2DB731A5E4278
:10CAD000294614A85E41FFF741FF34AB03EB850301
:10CAE000294653F8802C58F8803C384643EAC273F4
:10CAF000013C48F8803C24B2FFF730FFA8E734AB94
:10CB00000020C6F1010C014603EB860A03EB8C0CF6
:10CB1000D8E730B51C4691B0054693F90030684619
:10CB2000FFF72EFDD4F8AC3069462846984711B07F
:10CB300030BD13460A46FFF7ECBF2DE9F04793F9E5
:10CB4000006092B004468946104631461546984624
:10CB5000FFF7AAFE002840F091804246494602A80D
:10CB6000FFF7E7FF434602AA21460AA8FFF7D1FFD5
:10CB700002A908464246FFF7DCFF43462A464946DB
:10CB80004846FFF7C6FF08F10407424629462846F3
:10CB9000FFF7CFFF3B462A46214620460096FFF787
:10CBA000EAFE3B462A46294628460096FFF7E3FE62
:10CBB0003B462A46214628460096FFF7F5FE4346A7
:10CBC0002A4621462046FFF7A4FF3B46224621463F
:10CBD00028460096FFF7CFFE3B4600962A462146A0
:10CBE0002046FFF7C8FE2368DB074AD533463A469E
:10CBF00021462046FFF764FC314682462046FFF777
:10CC0000ADFE06F18043013B54F8230040EACA70B0
:10CC100044F82300424621462846FFF78AFF3B4658
:10CC20000AAA294628460096FFF7BEFE3B460AAAF6
:10CC3000294628460096FFF7B7FE0AA908463B4654
:10CC40002A460096FFF7B0FE43460AAA2146204630
:10CC5000FFF75FFF02AA3B46104621460096FFF70A
:10CC6000A3FE324629462046FFF757FE494628468E
:10CC7000FFF753FE02A94846FFF74FFE12B0BDE88A
:10CC8000F08731462046FFF769FEC3E72DE9F04102
:10CC900015468AB0044688461C22002103A800F0ED
:10CCA00021FC2E1D95F9007003232A46414620469B
:10CCB0000293FFF73EFF334602AA21462046009723
:10CCC000FFF772FE2B46424621462046FFF721FF22
:10CCD0000097334605F1840221462046FFF74BFEBC
:10CCE0000AB0BDE8F0810000F0B5082289B00C461A
:10CCF0000646FFF712FECB6A03930B6B04934B6B54
:10CD000005938B6B0693CB6B0793002708236A462A
:10CD100069466846CDE901770097FFF7D1FB082304
:10CD200005466A4631463046FFF7CAFB236B03933C
:10CD3000636B0493A36B0593E36B0544CDE906375E
:10CD40006A46082369466846FFF7BAFB082305448C
:10CD50006A4631463046FFF7B3FB236A0093636AA5
:10CD60000193A36A0293A36B0693E36B07930544B5
:10CD700008236A4631463046CDE904770397FFF72A
:10CD80009FFB636A0093A36AA26B0193E36A029319
:10CD90000492636BE26B0393CDE90523236A079347
:10CDA000054408236A4631463046FFF789FBE36AAB
:10CDB0000093236B0193636B0293236A0693A36A28
:10CDC0000793054408236A4631463046CDE9047787
:10CDD0000397FFF7A5FB236B0093636B0193A36B92
:10CDE0000293E36B0393636A0693E36A07932D1A36
:10CDF00008236A4631463046CDE90477FFF790FBB9
:10CE0000636B0093A36B0193E36B0293236A039319
:10CE1000636A0493A36ACDE90537236B07932D1A40
:10CE200008236A4631463046FFF77AFBA36B00932E
:10CE3000E36BCDE90137636A0393A36A0493E36A62
:10CE4000CDE90537636B07932D1A08236A463146EF
:10CE50003046FFF765FB2D1A0D4C0FD435B908226B
:10CE600031462046FFF765FD01280FD008232246F2
:10CE700031463046FFF754FB2D1AEFE708232246D0
:10CE800031463046FFF71CFB2D18F7D409B0F0BD32
:10CE900044D90700F0B5154689B01C4607460E4632
:10CEA0001A4629466846FFF744FE23466A46394635
:10CEB0003846FFF72EFE23462A4669466846FFF7A6
:10CEC00028FE23466A4631463046FFF722FE09B067
:10CED000F0BD2DE9F0438BB01446129D15F9046B9B
:10CEE00000961F46804689462B460246214602A8E8
:10CEF000FFF75AFD02A9129A0846FFF71AFE129B85
:10CF000002AA41464046FFF704FE129B02AA2146B0
:10CF10002046FFF7FEFD2B464A4639463846009626
:10CF2000FFF742FD129A394602A8FFF702FE02A956
:10CF30002B46424608460096FFF736FD02A92B46CF
:10CF4000224608460096FFF72FFD2B464246214613
:10CF500020460096FFF728FD129B22464946484688
:10CF6000FFF7D7FD2B4602AA414620460096FFF761
:10CF70001BFD129B224639463846FFF7CAFD2B4659
:10CF80004A46394638460096FFF70EFD324602A95A
:10CF90002046FFF7C2FC0BB0BDE8F0832DE9F04757
:10CFA0001F46B3F90230894613F11F0148BF03F150
:10CFB0003E014D11D91D48BF03F10E01CC10944222
:10CFC0004FFA85F828BF144641460646FFF761FC34
:10CFD00022464946FFF76AFAB7F90220E400944274
:10CFE0001FD9A41A06EB85010022C4F120058E4248
:10CFF0000ED32437424631463846FFF79AFC0128C3
:10D000000FD043463A463046BDE8F047FFF788BAAE
:10D0100051F8040D20FA04F313430B6000FA05F2F3
:10D02000E5E7BDE8F08770B5036813F00105064633
:10D03000144605D013460A460146FFF741FA054655
:10D0400021463046FFF78AFC45B104F18042013A9F
:10D0500056F8223043F0004346F8223070BDF0B558
:10D060000F46A1B006461946384615461C46FFF73E
:10D070001BFC20B13046FFF70CFC21B0F0BD22466E
:10D0800039466846FFF749FC294608A8FFF745FCE2
:10D0900010A82146FFF7FDFB012318A81093FFF706
:10D0A000F8FB224608A96846FFF743FC28B9224648
:10D0B00010A93046FFF731FCDFE7009BDA0709D4FF
:10D0C00021466846FFF74AFC2246294610A8FFF78A
:10D0D000AAFFE6E7089BDB0707D4214608A8FFF76D
:10D0E0003DFC2246294618A8F1E7002823461CDD0E
:10D0F00008AA69466846FFF713FA21466846FFF713
:10D100002DFC224618A910A8FFF713FC002805DA09
:10D1100010A923462A460846FFF7D2F910A923464C
:10D1200018AA0846FFF7FCF9CEE708A96A460846A0
:10D13000FFF7F6F9214608A8FFF710FC224610A9D0
:10D1400018A8FFF7F6FB002805DA18A923462A4697
:10D150000846FFF7B5F918A9234610AA0846FFF7B5
:10D16000DFF9BEE70048704740D907002DE9F04FCE
:10D17000EDB01F46769E0490B6F9023096F9004055
:10D1800013F11F0948BF03F13E0949F3471909F19B
:10D19000FF3824AB002543F828506CAB03EB880321
:10D1A0004CA88A469346394696F9012043F8805C9C
:10D1B00043F8605CFFF77AF996F9012054A8B91892
:10D1C000FFF774F921464CA8FFF76EFB07460028CD
:10D1D00040F02D8154A8FFF767FB0290002840F033
:10D1E000288106F124034A464CA918460393FFF709
:10D1F000A0FB012840F01F814A4654A90398FFF77D
:10D2000098FB0128069040F016811CAD0CAF4B46F0
:10D21000039A54A92846FFF722FF029B47F82830BB
:10D220005A46514638463346FFF7B8FE3946384627
:10D23000039BCDF800902A46FFF7C8FB0DF5B878A0
:10D24000039BCDF800902A464CA914A8FFF7BEFB1B
:10D25000224640460499FFF760FBA30008EB030A4F
:10D260000793049BA100591806F1440B5046FFF7A1
:10D2700054FB594634A8FFF750FBA3000BEB030106
:10D280003CA8FFF74AFB331D414634AA28460094C8
:10D290000593FFF789FB534642463CA934A8009604
:10D2A000FFF717FE2346321D29462846FFF7D7FE13
:10D2B0002A46514640463346FFF7ECFD029BCDE936
:10D2C000083B049B49463846CDE90A38FFF705FB81
:10D2D0004946804614A8FFF700FB8045B8BF80464A
:10D2E0001FFA88F808F1FF3B0FFA8BFB59463846C6
:10D2F000FFF7E9FA5946071C14A818BF0127FFF7E2
:10D30000E2FA002814BF022300231F430DF1200A74
:10D3100022465AF8277024A83946FFF7FEFA0DF185
:10D32000B00BA300F9185846FFF7F7FA2146284634
:10D33000FFF7AFFAA8F10208069B2B600FFA88F8F6
:10D340000DF1900AB8F1000F23DA2346059A294619
:10D350002846FFF784FE33462A4659465046FFF7D3
:10D3600099FD4A4651460398FFF7E3FA012804D095
:10D370004B46039A5046FFF7D3F8013C64B24CAADF
:10D3800023064AD5029BB3FA83F040096DB0BDE88D
:10D39000F08F33462A46D6F8A47059465046B8470F
:10D3A00041460CA8FFF78FFA4146071C14A818BF86
:10D3B0000127FFF788FA002814BF022300231F4328
:10D3C00008AB53F827701FB32246394634A8FFF73D
:10D3D000A4FA079B3CA8F918FFF79FFA33462A46A0
:10D3E0003CA934A8FFF756FD059B009434AA51468A
:10D3F00044A8FFF7D9FA5B4652463CA934A80096E8
:10D40000FFF767FD334644AA29462846FFF781FB0C
:10D4100008F1FF380FFA88F894E752F824105AF808
:10D4200024304B40029919430291013CA8E7284659
:10D43000ACE73846AAE70298A8E7000008B5074B12
:10D44000044613B10021AFF30080054B1868836ACE
:10D4500003B19847204600F055F800BF00000000D7
:10D46000F0D9070070B50D4D0D4C641BA4100026BB
:10D47000A64209D10B4D0C4C00F046F8641BA410D9
:10D480000026A64205D170BD55F8043B98470136E9
:10D49000EEE755F8043B98470136F2E7005A0020C2
:10D4A000005A0020005A0020045A002030B50139EB
:10D4B0000024A24201D1002005E0035D01340D5D8E
:10D4C000AB42F6D0581B30BD0A44914200F1FF3305
:10D4D00000D1704710B511F8014B03F8014F91428C
:10D4E000F9D110BD02440346934200D1704703F8BE
:10D4F000011BF9E7034613F8012B002AFBD1181A88
:10D5000001387047FEE700BFF8B500BFF8BC08BCA3
:10D510009E467047F8B500BFF8BC08BC9E467047F1
:10D520000010000004000000010000006D8A0700E8
:10D53000918A0700A18A07000D8B0700B18A0700B6
:10D54000798A07007D8A0700818A070000100000A1
:10D5500004000000010000001D8C0700FD8B070087
:10D56000ED8B0700258E0700D98D0700BF8B0700C4
:10D57000C38B0700C98B0700982F8A4291443771EB
:10D58000CFFBC0B5A5DBB5E95BC25639F111F15946
:10D59000A4823F92D55E1CAB98AA07D8015B831288
:10D5A000BE853124C37D0C55745DBE72FEB1DE8034
:10D5B000A706DC9B74F19BC1C1699BE48647BEEF63
:10D5C000C69DC10FCCA10C246F2CE92DAA84744AEE
:10D5D000DCA9B05CDA88F97652513E986DC631A864
:10D5E000C82703B0C77F59BFF30BE0C64791A7D543
:10D5F0005163CA0667292914850AB72738211B2ECB
:10D60000FC6D2C4D130D385354730A65BB0A6A76B2
:10D610002EC9C281852C7292A1E8BFA24B661AA8BE
:10D62000708B4BC2A3516CC719E892D1240699D6CE
:10D6300085350EF470A06A1016C1A419086C371E47
:10D640004C774827B5BCB034B30C1C394AAAD84E25
:10D650004FCA9C5BF36F2E68EE828F746F63A57860
:10D660001478C8840802C78CFAFFBE90EB6C50A4F3
:10D67000F7A3F9BEF27871C64800280000204000E8
:10D6800065D1070011121314654041BA9B20C9D31C
:10D69000B44FBC073FBB83E03B4E795B7914C67344
:10D6A0001EE50BFC2DA5BA823B2CC5033CAB89279C
:10D6B0007541D283A8BE4C5A1B07A0A07FC8A62ADA
:10D6C00041A161EE71C66E5500000000000000002F
:10D6D0000338FDD870470000C7A107006BA1070001
:10D6E000B5A6070027A7070047A70700ADA00700BA
:10D6F0006DA0070049A607000000000073A70700FF
:10D700006DA707004DA7070020000000780000006B
:10D710000000000001000100000000000100000006
:10D7200000000000020005000100000042000000AF
:10D7300000000000000000000000000000000000E9
:10D7400000000000010011000100FFFF01000000C7
:10D7500000000000020017000200FEFF640100004C
:10D76000A4D7070000000000000000000000000037
:10D7700000000000010001000000000001000000A6
:10D78000000000000200050001000000220000006F
:10D790000000000000000000000000000000000089
:10D7A00000000000010011000400FCFF0400000064
:10D7B00000000000020011000400FCFF0400000053
:10D7C00000000000030021000400FCFF0400100022
:10D7D00000000000040011000100FFFF0100000034
:10D7E00000000000050011000200FEFF0400000020
:10D7F00000000000060011000400FCFF040000000F
:10D8000000000000070011000400FCFF04000000FD
:10D8100000000000080017000200FEFF24000000C6
:10D8200074D70700090010000100FFFF010000008D
:10D8300054D807000A0027000200FEFF440003003E
:10D8400014D70700000000000000000000000000E6
:10D850000000000000000000010017000400FCFFB1
:10D860006801000044D70700020017000400FCFF15
:10D87000AC01000088D80700000000000000000094
:10D880000000000000000000010007000000000090
:10D890006801000044D707000200010000000000FA
:10D8A000010000000000000003000500010000006E
:10D8B0004200000000000000000000000000000026
:10D8C000000000000000000050EADA308883B89FB2
:10D8D000604F15F30000C98E4944313330435F4433
:10D8E000465500000000000000000000000000009D
:10D8F0000338FDD870470C000C00000058020010DF
:10D900001001000028DA070030DA070008000000E4
:10D9100038DA070048DA07000800000030DA0700AC
:10D9200038DA07000800000020DA070028DA0700CC
:10D930000800000048DA070050DA0700080000007D
:10D9400008200001FFFFFFFFFFFFFFFFFFFFFFFFBA
:10D9500000000000000000000000000001000000C6
:10D96000FFFFFFFF512563FCC2CAB9F3849E17A7CE
:10D97000ADFAE6BCFFFFFFFFFFFFFFFF0000000066
:10D98000FFFFFFFF96C298D84539A1F4A033EB2DD5
:10D99000817D0377F240A463E5E6BCF847422CE1C1
:10D9A000F2D1176BF551BF376840B6CBCE5E316B05
:10D9B0005733CE2B169E0F7C4AEBE78E9B7F1AFEC9
:10D9C000E242E34F4B60D2273E3CCE3BF6B053CC15
:10D9D000B0061D65BC86987655BDEBB3E7933AAAB1
:10D9E000D835C65A3BCB07008DCC0700E9CC0700E1
:08D9F000A05900200000000016
:08D9F80079AE0700F5AB070052
:0CDA000000000000030000002DC0070023
:10DA0C00AC600020E8700020F9700020B4600020A9
:04DA1C00F400000012
:08DA20000DA907000000000041
:08DA2800D98B0700000000008B
:08DA3000998D070000000000C1
:10DA380065C307000000000071C407000000000073
:08DA4800F58C0700000000004E
:08DA5000F0A7FF7F01000000B8
:10DA58000090D0030000000000000000000000005B
:10DA680000000000000000000000000000000000AE
:10DA7800010000006C5900207C590020FF00FFFFC6
:10DA88000100000000E007000000000000000000A6
:10DA9800000000000000000000000000000000007E
:10DAA800000000000000000000000000000000006E
:10DAB800000000000000000000000000000000005E
